:040000000200313297
:03000B000202DF0F
:0300130002032FB6
:01001B0032B2
:03002300020335A0
:03002B000203438A
:0B008A00752200752308C20002002E42
:03002E000203BD0D
:20009500AE82AF83EE4F601B7C707D00EC24FFFAED34FFFB8A048B05EA4B70F01EBEFF0115
:2000B5001F80E122A2958294829682974002C29022AF82BF0002800ABF0102800CBF0216B4
:2000D500800EC291D292D29322D291D292C29322D291D293C29222AF82BF05028014BF0673
:2000F500028014BF07028014BF08028014BF091980147527038012752704800D75270580A8
:200115000875270280037527017522020202810524AE247F007529058F2A8E828F831204D8
:200135002BAE8274C8B52403752400C3EE95275003D2B222C2B222A294B3E4331382955028
:2001550040A296B3E433FFA297B3E433FE5F6002800FA296E433FFA297E433FE5207BF0143
:20017500097580007582050200ECA296B3E43313829750097580007582060200EC75800026
:2001950022A295B3E4331382945039A296E433FFA297E4335207BF010475805522A296E432
:2001B50033FFA297E4334F70097580AA900190020095A296B3E433138297500475800022F0
:2001D50075800022A296B3E433FFA297E433FEA295E4335206A294E4335206BE0103EE8029
:2001F50001E45F600475800022A297B3E433FFA296E433FEA294E4335206A295E433520691
:20021500BE0103EE8001E45F60047580002275800022AF82BF61028032BF6202801DBF64DB
:20023500028031BF6602800FBF6C028012BF72028011BF73268010758055227580AA227533
:20025500805A227580A5227580002274F62523400D052322E523600615232275800022D2C0
:20027500AFD2ACD2A9D2ADD2AAC28A227589217402B52209758CFE758A33D28C227403B506
:200295002206758C00758A00227402B52207758CFE758A33227403B52206758C00758A0004
:2002B50022759850758700C298758921758BFD758DFDD28E2275C80075C90075CBFF75CDBB
:2002D500FF75CAA475CCA4D2CA22C021C0E0C0F0C082C083C007C006C005C004C003C00233
:2002F500C001C000C0D075D0007402B5220812029E12012480077403B52202D200D0D0D03C
:2003150000D001D002D003D004D005D006D007D083D082D0F0D0E0D02132C2AA752204328B
:20033500C0E0C298E5227003752201D0E032C021C0E0C0F0C082C083C007C006C005C004EE
:20035500C003C002C001C000C0D075D0180525E4B52502052675290A752A00852582852662
:200375008375D0001203DE75D018AE827490B5250E7401B52609E4F525F526F580C2CAC3FE
:20039500E5239E4004D2B68002C2B6D0D0D000D001D002D003D004D005D006D007D083D07D
:2003B50082D0F0D0E0D021321202741202B61202CAD2B77401B5220C7582021200C6859913
:0903D5008212022775220080EA61
:10046500C0F9A4B0999282F880908883C6A1868E3F
:06006000E478FFF6D8FD74
:20003E007900E94400601B7A00900475780175A000E493F2A308B8000205A0D9F4DAF275EF
:02005E00A0FF01
:2003DE00E529452A60467A01E52925E0F529E52A334012F52AE5829529E583952A40030AE4
:2003FE0080E6C3E52A13F52AE52913F529C3E5829529F5F0E583952A4005F58385F082C3CB
:0D041E00E52A13F52AE52913F529DAE12274
:200066007800E84400600A790175A000E4F309D8FC7800E84400600C7900900001E4F0A398
:04008600D8FCD9FACF
:0D00310075812A120461E582600302002E31
:20042B00C2D5E58330E70DD2D5E4C39582F582E49583F583E52A30E70BE4C39529F529E4A6
:16044B00952AF52A1203DE30D50BE4C39582F582E49583F58322EF
:04046100758200227E
:00000001FF
