:040000000200313297
:03000B000203A14C
:030013000203FCE9
:01001B0032B2
:03002300020400D4
:03002B0002040EBE
:0D008A00752200752308C200D20102002E6D
:03002E000204E2E7
:20009700AE82AF83EE4F601B7C707D00EC24FFFAED34FFFB8A048B05EA4B70F01EBEFF0113
:2000B7001F80E12285829910990280FB22A2958294829682974003C29022D29022AF82BFF6
:2000D7000002800ABF0102800CBF0216800EC291D292D29322D291D292C29322D291D29386
:2000F700C29222AF82BF0502801CBF0602801CBF0702801CBF08028008BF091775280180CB
:2001170012752802800D7528038008752804800375280575220202035A0524E4B5240205B7
:2001370025752905752A008524828525831205F3AE82AF8374C8B52406E4B52502800280A0
:200157000CE4F524F525C2B2752203C28CC3EE95285003D2B222C2B22212035AD2B5000016
:20017700000000000000000000000000000000000000C2B530B4FDD28C20B4FDC28C22AFC2
:200197008C7F00E58A2FF5828F8C8F8A12068FAC82AD83AEF0FFC004C005C006C00790E1CB
:2001B7004875F08A743F1204EFAC82AD83AEF0FFE58124FCF5818C828D838EF0EF12069A05
:2001D700AF82100002800775A0FF7582FF228F8212068FAC82AD83AEF0FFC004C005C00610
:2001F700C00790439675F08B743C1204EFAC82AD83AEF0FFE58124FCF5818C828D838EF080
:20021700EF02069AA294B3E4331382955040A296B3E433FFA297B3E433FE5F6002800FA288
:2002370096E433FFA297E433FE5207BF01097580007582050200FAA296B3E4331382975020
:20025700097580007582060200FA75800022A295B3E4331382945039A296E433FFA297E45B
:20027700335207BF010475805522A296E433FFA297E4334F70097580AA900190020097A24A
:2002970096B3E43313829750047580002275800022A296B3E433FFA297E433FEA295E4339C
:2002B7005206A294E4335206BE0103EE8001E45F60097580007582060200FAA297B3E4335C
:2002D700FFA296E433FEA294E4335206A295E4335206BE0103EE8001E45F60097580007529
:2002F70082080200FA75800022AF82BF61028032BF6202801DBF64028031BF6602800FBF3A
:200317006C028012BF72028011BF73268010758055227580AA2275805A227580A5227580CB
:20033700002274F62523400D052322E523600615232275800022D2AFD2ACD2A9D2ADD2AAE7
:20035700D28A224389017402B52208758CFE758A33800B7403B52206758C00758A00D28C78
:2003770022759850758700C298438920758BFD758DFDD28E2275C80075C90075CBFF75CD2B
:20039700FF75CAA475CCA4D2CA22C021C0E0C0F0C082C083C007C006C005C004C003C00270
:2003B700C001C000C0D075D0007402B5220DC2AD758CFE758A33120130800D7403B52208B0
:2003D700758C00758A00D200D0D0D000D001D002D003D004D005D006D007D083D082D0F093
:2003F700D0E0D0213275220432C0E0C298E5227003752201D0E032C021C0E0C0F0C082C025
:2004170083C007C006C005C004C003C002C001C000C0D075D0180526E4B526020527752983
:200437000A752A0085268285278375D0001205F375D018AE827490B5260E7401B52709E499
:20045700F526F527F580C2CAC3E5239E4004D2B68002C2B6D0D0D000D001D002D003D00464
:20047700D005D006D007D083D082D0F0D0E0D0213212034D12037812038C752200D2B722D9
:200497001200C43090067582001200D47401B52202800E7403B52202801C7404B5222B800A
:2004B7000C7582021200D48599820203007582011200D402021B120170120196E582FF9076
:1804D700073593F5A0D2AD75220022300105120488C20112049780FBB2
:10073500C0F9A4B0999282F880908883C6A1868E6C
:2004EF00120592BC0003020661EF60FA30D502B2D1E583B4FF03020677E582B4FF03020687
:20050F0077258340072482400B0206612483145003020677F582EA8DF0A4A8F0EA8EF0A459
:20052F0028F8E435F0F9EB8DF0A428E935F0F9E433CA8FF0A429F9EA35F0FAEBF88EF0A41B
:20054F0029F9EA35F0FAE433FBEC8DF0A429F9EA35F0FAE43BFBE88FF0A42AFAEB35F0FBC3
:20056F00E433CCFD8EF0A42AFAEB35F0FBE43CFCED8FF0A42BFBEC35F0FC20E7031205C0FB
:03058F0002064021
:20059200AA82AB83A2F73392D1F5826002D2F7ACF0E58124F9F8E6FD08E6FE0886F008E6CC
:0E05B200A2F73392D5F5836002D2F7AFF022A4
:06006000E478FFF6D8FD74
:2005C0007804EC7011E58224F8500AF582E4C9CACBFCD8EF22EC7820058220E713D582013A
:1305E00022C3E933F9EA33FAEB33FBEC33FCD8EA15822248
:20003E007900E94400601B7A00900745780175A000E493F2A308B8000205A0D9F4DAF2751C
:02005E00A0FF01
:2005F300E529452A60467A01E52925E0F529E52A334012F52AE5829529E583952A40030ACD
:2006130080E6C3E52A13F52AE52913F529C3E5829529F5F0E583952A4005F58385F082C3B3
:0D063300E52A13F52AE52913F529DAE1225D
:200066007800E84400600A790175A000E4F309D8FC7800E84400600C7900900001E4F0A398
:04008600D8FCD9FACF
:20064000B98003EA13B34010EA2401FAE43BFBE43CFC50047C800582BC000EBB000BBA00FE
:2006600008E4F5F0F583F58222A2D1E582138CF092F78B838A8222E4F583F58275F080F4BE
:0F068000A2D11322E4F583F58275F0C0747F22B6
:0D00310075812A1206B5E582600302002EDB
:0B068F00E4AC82FBFAF974860206ABB3
:08069A007F861206BBF58222E7
:1306A200FCABF0AA83A982749EC2D1F5821205C00206401B
:0406B5007582002228
:2006B9007F9E12072330D103020661C3EF9582500974FFF5F0F583F5822279001206E089D6
:0706D900828A838BF0EC2202
:2006E0006040F82582500274FFF582E824F8501ECCCBCAF9E4CC24F85014CBCAF9E4CB2422
:20070000F8500BCAF9E4CA24F8500379002224086010F8C3EC13FCEB13FBEA13FAE913F9D4
:03072000D8F122EB
:12072300AA82AB83A2F73392D1F5826002D2F7ACF022DB
:00000001FF
