:040000000200313297
:03000B0002057774
:030013000205D013
:01001B0032B2
:030023000205D6FD
:03002B000205E4E7
:15008A00752300752408C200D201C202C203C204C20502002E4D
:03002E000206A423
:20009F00AE82AF83EE4F601B7C707D00EC24FFFAED34FFFB8A048B05EA4B70F01EBEFF010B
:2000BF001F80E12285829910990280FB22A2958294829682974003C29022D29022A20692A4
:2000DF0002A2079203A2089204A209920522AF82BF0002800ABF0102800CBF0216800EC22C
:2000FF0091D292D29322D291D292C29322D291D293C29222AF82BF0502801ABF06028019F8
:20011F00BF07028018BF08028007BF09137529012275290222752903227529042275290588
:20013F00220525E4B525020526752A05752B008525828526831207B5AE82AF8374C8B52585
:20015F0006E4B5260280028009E4F525F526C2B2C28CC3EE95295003D2B222C2B222D2B54E
:20017F000000000000000000000000000000000000000000C2B530B4FDD28C20B4FDC28C8B
:20019F0022AF8C7E00AC8A7D00EC2EF582ED3FF5838E8C8E8A120802AC82AD83AEF0FFC074
:2001BF0004C005C006C00790E14875F08A743F1206B1AC82AD83AEF0FFE58124FCF5818C23
:2001DF00828D838EF0EF12080F120802AC82AD83AEF0FFC004C005C006C00790439675F0DD
:2001FF008B743C1206B1AC82AD83AEF0FFE58124FCF5818C828D838EF0EF12080FAE82AF52
:20021F0083100002800775A0FF90FFFF22EE2473F582EF3409F583E493F5A08E828F8322EF
:20023F00AF827E01BF0502800ABF06028013BF08158007A294E433FE800CA296E433FE803E
:20025F0005A297E433FEC2AD8F82C00612011375230212053190000512009F7523031205E6
:20027F003112017D1201A0AD82AF83D006C3740F9D74808FF063F08095F0E433FCE4BDFF53
:20029F0004BFFF01044C6005EE6002C322D322E59054F0FF7E00BF2002802DBF30030203E2
:2002BF0048BF60030203C7BF70030204A3BFA00302041DBFB003020473BFD0030203BEBF8A
:2002DF00E0030203960204D3D206C207D208D209C0061200DCD006A20482058202400122B4
:2002FF007580AA758000EE700E758208C00612023F9204D006801DBE010E758205C006121D
:20031F00023F9202D006800C758206C00612023F9205D0067580AA900019C00612009FD075
:20033F00060EBE03B27E0080AEC206C207D208D209C0061200DCD006A20582024001227598
:20035F0080AA758000EE700E758208C00612023F9204D006800C758206C00612023F920536
:20037F00D0067580AA900019C00612009FD0060EBE02C57E0080C1D206C207C208C2091259
:20039F0000DC200201227580AA75800075820512023F92027580AA90001912009F80E3301A
:2003BF0095012275805580F7D206C207C208D209C0061200DCD006A205820250387580AA83
:2003DF00758000EE700E758206C00612023F9205D006800C758205C00612023F9202D0060F
:2003FF007580AA900019C00612009FD0060EBE02C67E0080C275805A90006402009FD20639
:20041F00C207D208C209C0061200DCD006A204820250387580AA758000EE700E758208C054
:20043F000612023F9204D006800C758205C00612023F9202D0067580AA900019C0061200AD
:20045F009FD0060EBE02C67E0080C27580A590006402009FC206C207D208C2091200DC3031
:20047F0004197580AA75800075820812023F92047580AA90001912009F80E47580A590003D
:20049F006402009FC206C207C208D2091200DC3005197580AA75800075820612023F92054B
:2004BF007580AA90001912009F80E475805A90006402009F75800022AF82BF61028032BF01
:2004DF006202801DBF64028031BF6602800FBF6C028012BF72028011BF73268010758055BB
:2004FF00227580AA2275805A227580A5227580002274F62524400D052422E52460061524C3
:20051F002275800022D2AFD2ACD2A9D2ADD2AAD28A224389017402B52309758CFE758A333B
:20053F00D28C227403B52306758C00758A0022759850758700C298438920758BFD758DFD0A
:20055F00D28E2275C80075C90075CBFF75CDFF75CAA475CCA4D2CA22C022C0E0C0F0C08205
:20057F00C083C007C006C005C004C003C002C001C000C0D075D0007402B5230B758CFE755B
:20059F008A33120140800D7403B52308758C00758A00D200D0D0D000D001D002D003D004BC
:2005BF00D005D006D007D083D082D0F0D0E0D02232752304D29032C0E0C298E52370037547
:2005DF002301D0E032C022C0E0C0F0C082C083C007C006C005C004C003C002C001C000C063
:2005FF00D075D0180527E4B527020528752A0A752B0085278285288375D0001207B575D095
:20061F0018AE827490B5270E7401B52809E4F527F528F580C2CAC3E5249E4004D2B6800254
:20063F00C2B6D0D0D000D001D002D003D004D005D006D007D083D082D0F0D0E0D02232129C
:20065F00052412054E120562752300D2B7221200CC3090067582001200ED7401B5230E75C7
:20067F0082021200ED8599821204D780147404B5230FC2AC7582011200ED1202AED2ACD2E1
:12069F00AD7523002230010512065EC20112066D80FB73
:10097300C0F9A4B0999282F880908883C6A1868E2C
:2006B100120754BC0003020864EF60FA30D502B2D1E583B4FF0302087AE582B4FF030208F3
:2006D1007A258340072482400B020864248314500302087AF582EA8DF0A4A8F0EA8EF0A489
:2006F10028F8E435F0F9EB8DF0A428E935F0F9E433CA8FF0A429F9EA35F0FAEBF88EF0A458
:2007110029F9EA35F0FAE433FBEC8DF0A429F9EA35F0FAE43BFBE88FF0A42AFAEB35F0FBFF
:20073100E433CCFD8EF0A42AFAEB35F0FBE43CFCED8FF0A42BFBEC35F0FC20E70312078273
:0307510002084358
:20075400AA82AB83A2F73392D1F5826002D2F7ACF0E58124F9F8E6FD08E6FE0886F008E608
:0E077400A2F73392D5F5836002D2F7AFF022E0
:06006000E478FFF6D8FD74
:200782007804EC7011E58224F8500AF582E4C9CACBFCD8EF22EC7820058220E713D5820176
:1307A20022C3E933F9EA33FAEB33FBEC33FCD8EA15822284
:20003E007900E94400601B7A00900983780175A000E493F2A308B8000205A0D9F4DAF275DC
:02005E00A0FF01
:2007B500E52A452B60467A01E52A25E0F52AE52B334012F52BE582952AE583952B40030A01
:2007D50080E6C3E52B13F52BE52A13F52AC3E582952AF5F0E583952B4005F58385F082C3EA
:0D07F500E52B13F52BE52A13F52ADAE12296
:200066007800E84400600A790175A000E4F309D8FC7800E84400600C7900900001E4F0A398
:04008600D8FCD9FACF
:0D080200AC83AB827A007900748E02089BF3
:20080F001208BF700AE582458345F0700122E430D112F4700BE5F0F47006E58330E7012238
:14082F0090800022700AE5F07006E58320E70122907FFF22FC
:20084300B98003EA13B34010EA2401FAE43BFBE43CFC50047C800582BC000EBB000BBA00F9
:2008630008E4F5F0F583F58222A2D1E582138CF092F78B838A8222E4F583F58275F080F4B9
:0F088300A2D11322E4F583F58275F0C0747F22B1
:0D00310075812B12091AE582600302002E72
:20089200FCABF0AA83A982749EF582C2D1EC30E716D2D1E9F42401F9EAF43400FAEBF43465
:0D08B20000FBECF43400FC12078202084346
:2008BF0012091EC3749E95824039790012093030D126E9F42401F582EAF43400F583EBF4AE
:2008DF003400F5F0ECF43400700AE582458345F0700122E430E70F22EC20E71489828A8310
:1B08FF008BF02230D10AE4F582F583F5F074802274FFF582F583F5F0747F220C
:04091A0075820022C0
:12091E00AA82AB83A2F73392D1F5826002D2F7ACF022DE
:200930006040F82582500274FFF582E824F8501ECCCBCAF9E4CC24F85014CBCAF9E4CB24CF
:20095000F8500BCAF9E4CA24F8500379002224086010F8C3EC13FCEB13FBEA13FAE913F982
:03097000D8F12299
:00000001FF
