:040000000200333295
:03000B000204707C
:0300130002026383
:01001B0032B2
:030023000204BA1A
:03002B00020510BB
:08008C00751805C20002002EE8
:05002E0012054680FEF2
:10009400AA82AB83EA4B60047C0180027C00EC60A2
:1000A4001F7C707D00EC4D60047E0180027E00EEBA
:1000B40060071CBCFFEF1D80EC1ABAFF011B80D443
:1000C4002285829910990280FB223095093094068A
:1000D400309603209702C29022AA82BA0002800AB4
:1000E400BA0102800CBA0216800EC291D292D29347
:1000F40022D291D292C29322D291D293C29222AAB4
:10010400827404B50200402DEA2A2A900113730276
:10011400012202012702012C020131020136751B62
:10012400038012751B04800D751B058008751B0266
:100134008003751B01751C0002042B05197405B599
:1001440019005003751900E519B51B005004D2B20B
:100154008002C2B2020229D2B500000000000000F1
:1001640000000000000000000000000000C2B522F2
:10017400AA8A758C00758A008A82120CB9AB82AC8B
:1001840083ADF0FEC003C004C005C00690E148750D
:10019400F08A743F120560AB82AC83ADF0FEE5815A
:1001A40024FCF5818B828C838DF0EE120CC4120C2E
:1001B400B9AA82AB83ACF0FDC002C003C004C00581
:1001C40090439675F08B743C120560AA82AB83ACA5
:1001D400F0FDE58124FCF5818A828B838CF0ED129D
:1001E4000CC4AA82100002801975A0FF746FC0E0CD
:1001F400740DC0E07480C0E01206CE15811581151F
:100204008122EA900D5F93F5A07B00C002C00374C5
:1002140079C0E0740DC0E07480C0E01206CEE581C0
:1002240024FBF58122751C0112042B12015B30B4EE
:10023400FDD28C20B4FDC28C0201747580DA900268
:10024400BC0200947580AD9002BC02009475805588
:100254009000C80200947580AA900190020094C096
:1002640022C0E0C0F0C082C083C002C003C004C08A
:1002740005C006C007C000C001C0D075D00075829B
:10028400011200DD748AC0E0740DC0E07480C0E027
:100294001206CE158115811581209448309545208C
:1002A400960330970F3096032097047A0080027AE1
:1002B40001BA01067580FF02039F2096153097123C
:1002C4007580FF7582011201037582021201030217
:1002D400039F7580FF758203120103758204120166
:1002E4000302039F209553309450309603209704C3
:1002F4007A0080027A01BA01067580AA02039F205F
:10030400960F20970C75805590019012009402036B
:100314009F2096153097127580FF75820112010394
:1003240075820212010302039F7580FF7582031216
:100334000103758204120103806120962C30970317
:100344002095047A0080027A01EA60032094047AFA
:100354000080027A01BA01117580FF7582011201D1
:1003640003758202120103803220972C30960320F9
:1003740094047A0080027A01EA60032095047A00EA
:1003840080027A01BA01117580FF7582031201039C
:1003940075820412010380037580FFD290D0D0D0FF
:1003A40001D000D007D006D005D004D003D002D0AD
:1003B40083D082D0F0D0E0D02232AA82758202C0EB
:1003C400021200DDD002BA61028037BA6202801ED6
:1003D400BA64028037BA6602800FBA6C028014BA1B
:1003E40072028014BA732D80147580AA80297580D6
:1003F4005580247580AD801F7580DA801A7580FF62
:10040400801574FB2518400F0518800BE51860074C
:10041400151880037580FF020462D2AFD2ACD2A952
:10042400D2ADD2AAC28A22758901E51C7003D28C8E
:1004340022758CFE758A3322E51C7007758CFE7557
:100444008A3322758CFE758A33227598507587001D
:10045400C298758921758BFD758DFDD28E2275C963
:1004640000C2C9C2C8758CFC758A6622C022C0E06D
:10047400C0F0C082C083C002C003C004C005C0066F
:10048400C007C000C001C0D075D000E51C700812C0
:10049400043C12013F8002D200D0D0D001D000D061
:1004A40007D006D005D004D003D002D083D082D0A8
:1004B400F0D0E0D02232C022C0E0C0F0C082C083BD
:1004C400C002C003C004C005C006C007C000C0010C
:1004D400C0D075D008C29885998275D0001200C525
:1004E40075D00885998275D0001203BE75D008D0E6
:1004F400D0D001D000D007D006D005D004D003D08E
:1005040002D083D082D0F0D0E0D02232C0E0C0F05C
:10051400C0D075D010C2CF051A75F005E51A84AAAB
:10052400F07414B51A08751A007580FFC2CAE5186C
:10053400B512004004D2B68002C2B6D0D0D0F0D0FA
:10054400E03212041E12042B12044E120462120032
:0C055400CE3090FA7582001200DD80F2BB
:100D5F00C0F9A4B0999282F880908883C6A1868E3C
:100D6F006F766572737465700A0064697374616E6F
:100D7F006365203D202564636D0A0073656C6620F2
:090D8F00636F6E74726F6C0A0050
:10056000120603BC000302067BEF60FA30D502B22C
:10057000D1E583B4FF03020691E582B4FF030206CE
:1005800091258340072482400B02067B248314506C
:1005900003020691F582EA8DF0A4A8F0EA8EF0A499
:1005A00028F8E435F0F9EB8DF0A428E935F0F9E40A
:1005B00033CA8FF0A429F9EA35F0FAEBF88EF0A4EB
:1005C00029F9EA35F0FAE433FBEC8DF0A429F9EAD5
:1005D00035F0FAE43BFBE88FF0A42AFAEB35F0FBA8
:1005E000E433CCFD8EF0A42AFAEB35F0FBE43CFCBE
:1005F000ED8FF0A42BFBEC35F0FC20E70312063165
:1006000002065AAA82AB83A2F73392D16002D2F7D4
:10061000F582ACF0E58124F9F8E6FD08E6FE0886EF
:10062000F008E6A2F73392D56002D2F7F583AFF077
:0106300022A7
:06006200E478FFF6D8FD72
:100631007804EC700DC9CACBFCE58224F8F582D8A8
:10064100F122782020E7111582C3E933F9EA33FA60
:09065100EB33FBEC33FCD8EC2286
:100040007900E94400601B7A00900DA3780075A048
:1000500000E493F2A308B8000205A0D9F4DAF2751F
:02006000A0FFFF
:100068007800E84400600A790075A000E4F309D834
:10007800FC7800E84400600C7900900000E4F0A3EC
:04008800D8FCD9FACD
:10065A00B98003EA13B34010EA2401FAE43BFBE44D
:10066A003CFC50047C800582BC000EBB000BBA0027
:10067A0008E4F5F0F583F58222A2D1E582138CF025
:10068A0092F78B838A8222E4F583F58275F080F4EF
:10069A00A2D11322E4F583F58275F0C0747F22C0DB
:1006AA001E85811E1200C5D01E22858232858333A3
:1006BA0085F034E4F52FF530753100851D35900647
:1006CA00A9020791C01E85811EE51E24FBF535E4AB
:1006DA00F52FF530F531E51E24FBF886320886330E
:1006EA000886349006A9120791D01E22AA82C02534
:1006FA00C026C027740DC0E07407C0E0C023C02420
:10070A008A8222158115811581052DE4B52D0205F0
:10071A002E22AA8274302AFA7439B50200500A7459
:10072A00072AFA3001034302208A820206F6E5828A
:10073A00FAC4540FF582C00212071CD002740F5A71
:10074A00F58202071C85823CAB28AC29AD2AAE2B68
:10075A00AF2C753D20EF2FFFEE235401FA4207EB31
:10076A002BFBEC33FCED33FDEE33FEEFB53C0040E2
:10077A0008EFC3953CFF430301D53DD98B288C294B
:10078A008D2A8E2B8F2C22858223858324852F25E3
:10079A00853026853127E4F52DF52EAA32AB33AC08
:1007AA00348A828B838CF0120C9DFD74012AF532F7
:1007BA00E43BF5338C34EDFA7003020C7EBA250261
:1007CA008003020C76C202C203C204C205C206C278
:1007DA0007C208C2097536007537007DFFAE32AF11
:1007EA0033AB348E828F838BF0120C9DFAA3AE82C8
:1007FA00AF838E328F338B34BA25078A821206F67C
:10080A0080998A04BC300040288A047439B50400EF
:10081A00401FBDFF11E53775F00AA42A24D0F53729
:10082A0070C1D20380BDED75F00AA42A24D0FD80E0
:10083A00B2BA2E07BDFFAC7D0080A88A04BC610055
:10084A0040108A04747AB5040040075302DFD201CB
:10085A008002C201BA20028055BA2B02804BBA2DFF
:10086A00028041BA4202804BBA43028050BA440322
:10087A00020A1FBA4603020A35BA4903020A1FBA14
:10088A004C028034BA4F03020A26BA50030209B650
:10089A00BA5302804CBA5503020A2BBA5803020A09
:1008AA0030020A39D2020207EDD2040207EDD2055C
:1008BA000207EDD2070207EDD2080207ED30070A58
:1008CA00E53514F888358602800FE53524FEF88868
:1008DA00358603088604188B028A821206F6020AF3
:1008EA0042E53524FDF8883586030886040886061D
:1008FA0018188B288C298E2A8B828C838EF0C0053F
:10090A00120C85AB82AC83D005BDFF028B05200299
:10091A002CEBB537005026E537C39BF537AC378C3F
:10092A00061C8C37EE6014758220C003C004C00513
:10093A001206F6D005D004D00380E48C378D0485E6
:10094A002882852983852AF0120C9DFDFA602F8C56
:10095A00051CC374808DF063F08095F050208A8264
:10096A00C003C0041206F6D004D003AD28AE29AFE6
:10097A002A0DBD00010E8D288E298F2A80C12002E2
:10098A0003020A42EBB537004003020A42E537C3C5
:10099A009BF537AC378C051C8C37ED7003020A4087
:1009AA00758220C0041206F6D00480E9E53524FDDC
:1009BA00F88835860508860608860718188D288E51
:1009CA00298F2AAD2ABD800040047A438014BD6075
:1009DA000040047A50800BBD400040047A498002EE
:1009EA007A588A82C0021206F675823A1206F6759B
:1009FA0082301206F67582781206F6D002BA4902D9
:100A0A00800BBA500280068529821207388528820F
:100A1A001207388023D20675360A801C753608807C
:100A2A001775360A8012753610800DD20980098A28
:100A3A00821206F680028C3730095AE53524FCF812
:100A4A008835860408860508860608860718181851
:100A5A008C288D298E2A8F2B75289875290D752A31
:100A6A008085283985293A852A3B74012539FFE48E
:100A7A00353AFCAD3B8F288C298D2A853982853AF7
:100A8A0083853BF0120C9DFCFA70030207A58A824B
:100A9A001206F680CCE53670030207A57538433096
:100AAA00072BE53514F88835E6FD3395E0FEFFFCA3
:100ABA008D288E298F2A8C2B200662AC287D007EF9
:100ACA00007F008C288D298E2A8F2B805030081F9A
:100ADA00E53524FCF8883586040886050886060864
:100AEA0086071818188C288D298E2A8F2B802EE5B8
:100AFA003524FEF88835860408860518ED3395E016
:100B0A00FEFF8C288D298E2A8F2B200610AC28AD4B
:100B1A00297E007F008C288D298E2A8F2B3006256E
:100B2A00AC28AD29AE2AE52BFF30E717C3E49CFCBD
:100B3A00E49DFDE49EFEE49FFF8C288D298E2A8F7A
:100B4A002B8002C206D20AA8387C00752C00853692
:100B5A0082C004C00012074FD000D004200A0DE55D
:100B6A002CC4FDE6FE4DF61888388002A62C0C8CA3
:100B7A0003B20AE5284529452A452B70CE88388CC8
:100B8A0003E5377003753701200325200222EB04A1
:100B9A00FCAD37ECB505005015758220C003C004C2
:100BAA00C0051206F6D005D004D0031D80E58D37A6
:100BBA0030060E75822DC0031206F6D00315378053
:100BCA0023EB602030040E75822BC0031206F6D088
:100BDA00031537800F30050C758220C0031206F604
:100BEA00D0031537200225AC378C051C8C37EBB5A2
:100BFA000500502B3003047D3080027D208D82C099
:100C0A0003C0041206F6D004D00380DDEBB537002A
:100C1A005008E537C39BF537800775370080028C8B
:100C2A0037A8388B041BEC6026B20A200A0A08E6A9
:100C3A00C4540FFC8C2C80078604740F5CF52C8539
:100C4A002C82C003C00012071CD000D00380D4201D
:100C5A0002030207A5AB378B041BEC70030207A53E
:100C6A00758220C0031206F6D00380EB8A82120630
:0B0C7A00F60207A5852D82852E83223F
:0B0D98003C4E4F20464C4F41543E00A3
:100C8500AA82AB83120C9D6003A380F8C3E5829A08
:080C9500F582E5839BF5832243
:0D003300758143120CDFE582600302002E90
:100C9D0020F71430F6148883A88220F507E6A88380
:100CAD0075830022E280F7E49322E022E4AC82FB1C
:100CBD00FAF97486020CD57F86120CE5F58222FCBA
:100CCD00ABF0AA83A982749EC2D1F58212063102BD
:100CDD00065A758200227F9E120D4D30D1030206F9
:100CED007BC3EF9582500974FFF5F0F583F58222F1
:100CFD007900120D0A89828A838BF0EC226040F80C
:100D0D002582500274FFF582E824F8501ECCCBCA20
:100D1D00F9E4CC24F85014CBCAF9E4CB24F8500BE9
:100D2D00CAF9E4CA24F8500379002224086010F8A7
:100D3D00C3EC13FCEB13FBEA13FAE913F9D8F12218
:100D4D00AA82AB83A2F73392D16002D2F7F582ACBF
:020D5D00F02282
:00000001FF
